:020000040800F2
:100000008804002055040008B5040008B504000861
:10001000B5040008B5040008B5040008000000009D
:10002000000000000000000000000000B50400080F
:10003000B504000800000000B5040008B50400087D
:10004000B5040008B5040008B5040008B5040008AC
:10005000B5040008B5040008B5040008B50400089C
:10006000B5040008B5040008B5040008B50400088C
:10007000B5040008B5040008B5040008B50400087C
:10008000B5040008B5040008B5040008B50400086C
:10009000B5040008B5040008B5040008B50400085C
:1000A000B5040008B5040008B5040008B50400084C
:1000B000B5040008B5040008FD060008B5040008F2
:1000C000B5040008B5040008B5040008B50400082C
:1000D000B5040008B5040008B5040008B50400081C
:1000E000B5040008B5040008B504000800000000CD
:1000F0000000000000000000000000000000000000
:1001000000000000000000005FF808F180B485B036
:1001100000AF786039600023FB817B681B88FB811E
:100120007B682E4A934213D07B682D4A93420FD0AE
:100130007B68B3F1804F0BD07B682A4A934207D08B
:100140007B68294A934203D07B68284A934208D1AE
:10015000FB8923F07003FB813B685A88FB891343BA
:10016000FB817B68224A93420CD07B68214A9342F0
:1001700008D0FB8923F44073FB813B68DA88FB8954
:100180001343FB817B68FA891A803B689A887B68F5
:100190009A853B681A887B681A857B680F4A934268
:1001A0000FD07B680E4A93420BD07B68124A934271
:1001B00007D07B68114A934203D07B68104A934270
:1001C00004D13B681B7A9AB27B681A867B6801224D
:1001D0009A8200BF1437BD4680BC7047002C014096
:1001E000003401400004004000080040000C0040C2
:1001F0000010004000140040004001400044014055
:100200000048014080B483B000AF78607B684FF64F
:10021000FF729A807B6800221A807B680022DA8055
:100220007B6800225A807B6800221A7200BF0C375C
:10023000BD4680BC704700BF80B483B000AF78601B
:100240000B46FB70FB78002B08D07B681B889BB2A9
:1002500043F001039AB27B681A8007E07B681B8831
:100260009BB223F001039AB27B681A8000BF0C375F
:10027000BD4680BC704700BF80B483B000AF7860DB
:100280000B467B8013467B707B78002B08D07B6805
:100290009B899AB27B8813439AB27B689A8109E062
:1002A0007B689B899AB27B88DB439BB213409AB2EE
:1002B0007B689A8100BF0C37BD4680BC704700BF89
:1002C00080B483B000AF78600B467B807B88DB43D3
:1002D0009AB27B681A8200BF0C37BD4680BC70475B
:1002E00080B500AF154A154B1B6843F0010313603E
:1002F0001249124B5A68124B13404B600F4A0F4B76
:100300001B6823F0847323F4803313600B4A0B4B78
:100310001B6823F480231360084A084B5B6823F4AE
:10032000FE035360054B4FF41F029A6000F00CF877
:10033000044B4FF000629A6000BF80BD0010024085
:100340000000FFF800ED00E080B500AF00F002F81B
:1003500000BF80BD80B483B000AF00237B6000236A
:100360003B603A4A394B1B6843F480331360374B88
:100370001B6803F400333B607B6801337B603B68A0
:10038000002B03D17B68B3F5A06FF0D12F4B1B6816
:1003900003F40033002B02D001233B6001E0002373
:1003A0003B603B68012B4BD1294A294B1B6843F02A
:1003B00010031360264A264B1B6823F003031360C7
:1003C000234A234B1B6843F0020313601F4A1F4B51
:1003D0005B6853601D4A1D4B5B6853601B4A1B4B97
:1003E0005B6843F480635360184A184B5B6823F4DE
:1003F0007C135360154A154B5B6843F4E813536054
:10040000124A124B1B6843F08073136000BF0F4BFE
:100410001B6803F00073002BF9D00C4A0B4B5B6890
:1004200023F003035360094A084B5B6843F002035F
:10043000536000BF054B5B6803F00C03082BF9D138
:1004400000BF0C37BD4680BC704700BF00100240A3
:100450000020024080B582B000AF114B7B60114B91
:100460003B6007E03B681A1D3A607A68111D7960AD
:1004700012681A603B680C4A9342F3D30B480C494C
:100480004FF000028842B8BF40F8042BFADBFFF7B8
:1004900027FF00F023FA00BF0837BD4680BD00BF2C
:1004A000F3150008000000201400002014000020B4
:1004B0008400002080B400AFFEE700BF80B489B0A4
:1004C00000AF786039600023FB6100233B610023AB
:1004D000BB610023FB6000237B610023BB603B68A2
:1004E000DB7803F00F03FB613B68DB7803F010035C
:1004F000002B05D03B689B781A46FB691343FB61D0
:100500003B681B88DBB2002B44D07B681B687B6197
:100510000023BB6138E00122BB6902FA03F3FB60F0
:100520003B681B881A46FB6813403B613A69FB68CD
:100530009A4226D1BB699B00FB600F22FB6802FA3E
:1005400003F3BB60BB68DB437A6913407B61FA69E4
:10055000FB6802FA03F37A6913437B613B68DB783B
:10056000282B05D10122BB699A407B685A6108E0BB
:100570003B68DB78482B04D10122BB699A407B6839
:100580001A61BB690133BB61BB69072BC3D97B68A7
:100590007A691A603B681B88FF2B46D97B685B68C9
:1005A0007B610023BB613AE0BB690833012202FA98
:1005B00003F3FB603B681B881A46FB6813403B61F2
:1005C0003A69FB689A4227D1BB699B00FB600F2206
:1005D000FB6802FA03F3BB60BB68DB437A69134034
:1005E0007B61FA69FB6802FA03F37A6913437B6162
:1005F0003B68DB78282B05D1BB69083301229A4080
:100600007B685A613B68DB78482B05D1BB690833AE
:1006100001229A407B681A61BB690133BB61BB69E7
:10062000072BC1D97B687A695A6000BF2437BD4661
:1006300080BC704780B483B000AF78600B467B808D
:100640007A887B681A6100BF0C37BD4680BC704752
:1006500080B483B000AF78600B467B807A887B687B
:100660005A6100BF0C37BD4680BC704780B483B070
:1006700000AF786002E07B68013B7B607B68002B09
:10068000F9D100BF0C37BD4680BC704780B582B041
:1006900000AF00F0F3F94FF4803000F01DFA00F0E5
:1006A00049FA0346FB71FB79012B23D1002000F0AE
:1006B000C1FA002000F0F6FA4FF4806000F0D6FA9C
:1006C0004FF4E0114FF4803000F05CFA012000F0AC
:1006D00077FA00BF392000F009FC0346002BF9D05F
:1006E000022000F07DFA00BF00F096FA0346082BC6
:1006F000FAD100E0FEE70837BD4680BD80B500AF07
:1007000001213848FFF7DCFD374B1B68002B02D076
:10071000012B28D04FE020213448FFF78BFF042124
:100720003248FFF787FF08213048FFF783FF304842
:10073000FFF79CFF08212D48FFF78AFF2C48FFF7A1
:1007400095FF10212948FFF775FF2948FFF78EFF15
:1007500010212648FFF77CFF2548FFF787FF254B30
:1007600000221A6027E008212048FFF763FF1021CC
:100770001E48FFF75FFF20211C48FFF75BFF1C4866
:10078000FFF774FF20211948FFF762FF1848FFF7B1
:100790006DFF04211548FFF74DFF1548FFF766FF71
:1007A00004211248FFF754FF1148FFF75FFF114B78
:1007B00001221A6000BF104800F076FD03461A4679
:1007C0000E4B1A600D4B1B6840F64D02934203DD41
:1007D000054B01221A6002E0034B00221A6000BFA1
:1007E00080BD00BF000800407800002000080140E4
:1007F00020A107007C000020002401408000002090
:1008000080B586B000AF012144F2040000F032FB55
:1008100025233B7500237B750023BB750123FB75E6
:1008200007F11403184600F053FE4FF400733B82A7
:100830001823FB740323BB7407F1100319461448F3
:10084000FFF73CFE4FF480633B820423FB7407F107
:10085000100319460E48FFF731FE4FF4E1333B60B9
:100860000023BB800023FB8000233B810023BB814E
:100870000C237B813B461946064800F021FD0121EF
:10088000044800F0D7FD00BF1837BD4680BD00BF4B
:10089000000801400038014080B582B000AF7860A8
:1008A000396010E07B685A1C7A601B789BB219464D
:1008B000094800F0DFFD00BF4021074800F0ECFDD3
:1008C0000346002BF8D03B685A1E3A60002BE9D152
:1008D00000BF0837BD4680BD00380140B0B58CB0C0
:1008E00000AFFFF7D3FE0121042000F0C3FA3C2340
:1008F000BB85102387F82F30032387F82E3007F1AC
:100900002C0319465648FFF7D9FD0023FB75022337
:10091000BB8207F1140319465148FFF7CFFD4FF48E
:10092000004000F0DBF901214FF4007000F0A2FA62
:100930000023BB6100233B7701237B774FF46023C7
:100940003B6200237B62012387F8283003230122C6
:100950000121444800F0DEFB07F118031946414825
:1009600000F0FEFA01213F4800F04CFB3D4800F04A
:1009700065FB00BF3B4800F071FB0346002BF9D13B
:10098000384800F083FB00BF364800F08FFB034679
:10099000002BF9D10121334800F034FB012131480B
:1009A00000F09CFB0121042000F082FA07F108030B
:1009B0001846FFF727FC00237B814FF4E1533B816E
:1009C0004FF47A63BB8107F1080319462648FFF705
:1009D0009DFB012201212448FFF74EFC0121224802
:1009E000FFF72AFC1E233B7101237B710123BB719E
:1009F0000123FB713B1D184600F06AFDFFF700FF65
:100A00001A4B1B68002B12D1194A1A4B14461D466B
:100A10000FCD0FC40FCD0FC495E80F0007C423807E
:100A200002341B0C237064211148FFF735FF0F4B74
:100A30001B68012BE4D10E4A0F4B14461D460FCD07
:100A40000FC40FCD0FC495E80F0007C423800234F4
:100A50001B0C237064210648FFF71EFFD0E700BF80
:100A60000008014000240140000800407C000020F4
:100A70001400002094150008C415000880B400AFCD
:100A8000134A134B1B6843F0010313601049104BCA
:100A90005A68104B13404B600D4A0D4B1B6823F0F6
:100AA000847323F480331360094A094B1B6823F4D1
:100AB00080231360064A064B5B6823F4FE035360F1
:100AC000034B4FF41F029A6000BFBD4680BC7047C5
:100AD000001002400000FFF880B483B000AF7860DF
:100AE000134A134B1B6823F480331360104A104BD6
:100AF0001B6823F4802313607B68B3F5803F03D029
:100B0000B3F5802F07D00DE0094A094B1B6843F469
:100B10008033136006E0064A054B1B6843F4A023AC
:100B2000136000BF00BF0C37BD4680BC704700BFDC
:100B30000010024080B582B000AF00233B6000236C
:100B4000FB710023BB71312000F0D0F90346BB716B
:100B50003B6801333B603B68B3F5A06F02D0BB79C3
:100B6000002BF0D0312000F0C1F90346002B02D059
:100B70000123FB7101E00023FB71FB791846083764
:100B8000BD4680BD80B485B000AF78603960002379
:100B9000FB600A4B5B68FB60FB6823F47C13FB6023
:100BA0007A683B681343FA681343FB60034AFB68A7
:100BB000536000BF1437BD4680BC70470010024030
:100BC00080B483B000AF0346FB71044AFB79136025
:100BD00000BF0C37BD4680BC704700BF600042427A
:100BE00080B485B000AF78600023FB60094B5B6880
:100BF000FB60FB6823F00303FB60FA687B68134328
:100C0000FB60044AFB68536000BF1437BD4680BCDC
:100C1000704700BF0010024080B400AF044B5B6817
:100C2000DBB203F00C03DBB21846BD4680BC704754
:100C30000010024080B485B000AF78600023FB60F4
:100C4000094B5B68FB60FB6823F0F003FB60FA680C
:100C50007B681343FB60044AFB68536000BF143792
:100C6000BD4680BC704700BF0010024080B485B014
:100C700000AF78600023FB60094B5B68FB60FB689A
:100C800023F4E063FB60FA687B681343FB60044A6B
:100C9000FB68536000BF1437BD4680BC704700BF7F
:100CA0000010024080B485B000AF78600023FB6084
:100CB000094B5B68FB60FB6823F46053FB607B6857
:100CC000DB00FA681343FB60034AFB68536000BF14
:100CD0001437BD4680BC70470010024080B485B018
:100CE00000AF78600023FB60094B5B68FB60FB682A
:100CF00023F44043FB60FA687B681343FB60044ABB
:100D0000FB68536000BF1437BD4680BC704700BF0E
:100D10000010024080B487B000AF786000237B6190
:100D200000233B610023FB600023BB604C4B5B68EE
:100D300003F00C037B617B69042B07D0082B09D0DF
:100D4000002B33D17B68474A1A6033E07B68454A01
:100D50001A602FE0424B5B6803F470133B61404B19
:100D60005B6803F48033FB603B699B0C02333B619F
:100D7000FB68002B06D13B693B4A02FB03F27B6810
:100D80001A6017E0364B5B6803F40033002B06D083
:100D90003B69354A02FB03F27B681A600AE03B6953
:100DA000304A02FB03F27B681A6003E07B682D4A3D
:100DB0001A6000BF2A4B5B6803F0F0037B617B691C
:100DC0001B097B61294A7B6913441B78DBB2BB603A
:100DD0007B681A68BB68DA407B685A60204B5B68A6
:100DE00003F4E0637B617B691B0A7B611F4A7B69BB
:100DF00013441B78DBB2BB607B685A68BB68DA407F
:100E00007B689A60164B5B6803F460537B617B6977
:100E1000DB0A7B61154A7B6913441B78DBB2BB603C
:100E20007B685A68BB68DA407B68DA600C4B5B68A9
:100E300003F440437B617B699B0B7B610C4A7B69BC
:100E400013441B78DBB2BB607B68DA68BB68B2FB1B
:100E5000F3F27B681A6100BF1C37BD4680BC704747
:100E60000010024000127A0000093D00000000203E
:100E70001000002080B483B000AF78600B46FB7098
:100E8000FB78002B06D00949084B9A697B6813430D
:100E90008B6106E00549054B9A697B68DB4313408B
:100EA0008B6100BF0C37BD4680BC7047001002400C
:100EB00080B483B000AF78600B46FB70FB78002BEA
:100EC00006D00949084BDA697B681343CB6106E019
:100ED0000549054BDA697B68DB431340CB6100BFF2
:100EE0000C37BD4680BC70470010024080B487B00C
:100EF00000AF0346FB710023FB6000237B610023EE
:100F0000FB74FB795B09DBB2FB60FB68012B03D14F
:100F1000124B1B687B6109E0FB68022B03D10F4B6E
:100F20001B6A7B6102E00D4B5B6A7B61FB7903F01E
:100F30001F03FB607A69FB6822FA03F303F00103E5
:100F4000002B02D00123FB7401E00023FB74FB7C27
:100F500018461C37BD4680BC704700BF00100240D9
:100F600080B485B000AF786039600023FB60002357
:100F7000FB727B685B68FB60FB6823F4702323F4DF
:100F80008073FB603B681A683B681B791B02134344
:100F9000FA681343FB607B68FA685A607B689B6859
:100FA000FB60FA68164B1340FB603B68DA683B68ED
:100FB0009B681A433B685B795B001343FA681343F1
:100FC000FB607B68FA689A607B68DB6AFB60FB68A1
:100FD00023F47003FB603B681B7C013BDAB2FB7AB5
:100FE0001343FB72FB7A1B05FA681343FB607B68B3
:100FF000FA68DA6200BF1437BD4680BC704700BF94
:10100000FDF7F1FF80B483B000AF78600B46FB7052
:10101000FB78002B06D07B689B6843F001027B685D
:101020009A6005E07B689B6823F001027B689A6008
:1010300000BF0C37BD4680BC704700BF80B483B092
:1010400000AF78607B689B6843F008027B689A6019
:1010500000BF0C37BD4680BC704700BF80B485B070
:1010600000AF78600023FB737B689B6803F0080384
:10107000002B02D00123FB7301E00023FB73FB7BF9
:1010800018461437BD4680BC704700BF80B483B09B
:1010900000AF78607B689B6843F004027B689A60CD
:1010A00000BF0C37BD4680BC704700BF80B485B020
:1010B00000AF78600023FB737B689B6803F0040338
:1010C000002B02D00123FB7301E00023FB73FB7BA9
:1010D00018461437BD4680BC704700BF80B483B04B
:1010E00000AF78600B46FB70FB78002B06D07B6866
:1010F0009B6843F4A0027B689A6005E07B689B686C
:1011000023F4A0027B689A6000BF0C37BD4680BC08
:10111000704700BF80B485B000AF786008461146C4
:101120001A460346FB700B46BB7013467B700023C8
:10113000FB600023BB60FB78092B23D97B68DB684D
:10114000FB60FB78A3F10A0213465B0013440722FD
:1011500002FA03F3BB60BB68DB43FA681340FB6031
:101160007978FB78A3F10A0213465B00134401FA75
:1011700003F3BB60FA68BB681343FB607B68FA68E3
:10118000DA601EE07B681B69FB60FA7813465B003F
:101190001344072202FA03F3BB60BB68DB43FA681F
:1011A0001340FB607978FA7813465B00134401FA28
:1011B00003F3BB60FA68BB681343FB607B68FA68A3
:1011C0001A61BB78062B21D87B685B6BFB60BB7810
:1011D0005A1E13469B0013441F2202FA03F3BB60FE
:1011E000BB68DB43FA681340FB60F978BB785A1E92
:1011F00013469B00134401FA03F3BB60FA68BB6813
:101200001343FB607B68FA685A6347E0BB780C2B9A
:1012100021D87B681B6BFB60BB78DA1F13469B00F1
:1012200013441F2202FA03F3BB60BB68DB43FA6876
:101230001340FB60F978BB78DA1F13469B00134418
:1012400001FA03F3BB60FA68BB681343FB607B6879
:10125000FA681A6322E07B68DB6AFB60BB78A3F163
:101260000D0213469B0013441F2202FA03F3BB60D6
:10127000BB68DB43FA681340FB60F978BB78A3F1E5
:101280000D0213469B00134401FA03F3BB60FA6896
:10129000BB681343FB607B68FA68DA6200BF1437EF
:1012A000BD4680BC704700BF80B483B000AF78609B
:1012B0007B68DB6C9BB218460C37BD4680BC704720
:1012C00080B58CB000AF786039600023FB620023EA
:1012D000BB6200237B6200233B620023FB617B68CF
:1012E000FB617B681B8A9BB2FB62FA6A4CF6FF7358
:1012F0001340FB623B68DB881A46FB6A1343FB62C0
:10130000FB6A9AB27B681A827B689B899BB2FB62FC
:10131000FA6A4EF6F3131340FB623B689A883B6807
:101320001B8913439AB23B685B8913439BB21A46ED
:10133000FB6A1343FB62FB6A9AB27B689A817B6803
:101340009B8A9BB2FB62FA6A4FF6FF431340FB6233
:101350003B689B891A46FB6A1343FB62FB6A9AB29D
:101360007B689A8207F108031846FFF7D3FCFB69F4
:101370002E4A934202D17B69BB6201E03B69BB62AA
:101380007B689B899BB21BB2002B0CDABA6A1346AE
:101390009B0013449A001A443B681B685B00B2FB35
:1013A000F3F37B620BE0BA6A13469B0013449A0086
:1013B0001A443B681B689B00B2FBF3F37B627B6AB9
:1013C0001B4AA2FB03235B091B01FB62FB6A1B098F
:1013D000642202FB03F37A6AD31A3B627B689B891F
:1013E0009BB21BB2002B0CDA3B6ADB003233104A93
:1013F000A2FB03235B0903F00703FA6A1343FB62B2
:101400000BE03B6A1B013233094AA2FB03235B0951
:1014100003F00F03FA6A1343FB62FB6A9AB27B681C
:101420001A8100BF3037BD4680BD00BF0038014083
:101430001F85EB5180B483B000AF78600B46FB7022
:10144000FB78002B08D07B689B899BB243F4005348
:101450009AB27B689A8107E07B689B899BB223F4F0
:1014600000539AB27B689A8100BF0C37BD4680BC9E
:10147000704700BF80B483B000AF78600B467B80BC
:101480007B88C3F308039AB27B689A8000BF0C374D
:10149000BD4680BC704700BF80B485B000AF7860A7
:1014A0000B467B800023FB737B681B889AB27B888A
:1014B00013409BB2002B02D00123FB7301E00023F9
:1014C000FB73FB7B18461437BD4680BC704700BFDA
:1014D00080B487B000AF786000237B6100233B615C
:1014E0000F23FB607B68DB78002B3AD0274BDB684F
:1014F000DB4303F4E0631B0A7B617B69C3F10403F4
:101500003B61FA687B6922FA03F3FB607B685B78D6
:101510001A463B6902FA03F37B617B689B781A46A3
:10152000FB6813407A6913437B617B691B017B6114
:10153000174A7B681B787969C9B213440A4683F855
:101540000023134A7B681B785B09DBB218467B6873
:101550001B7803F01F03012101FA03F342F8203046
:101560000FE00B497B681B785B09DBB218467B6890
:101570001B7803F01F0301229A4000F1200341F879
:10158000232000BF1C37BD4680BC704700ED00E043
:1015900000E100E00D0A56443220616E642056449A
:1015A00035202D206C696768742056443320616EA5
:1015B0006420564434202D20626C696E6B0D0A2025
:1015C0000D0A00000D0A56443320616E6420564413
:1015D00034202D206C696768742056443220616E77
:1015E0006420564435202D20626C696E6B0D0A20F4
:0315F0000D0A00E1
:1015F30000000000010203040102030406070809B6
:0416030002040608CF
:0400000508000000EF
:00000001FF
