:020000040800F2
:100000000804002081020008E1020008E102000863
:10001000E1020008E1020008E1020008000000001F
:10002000000000000000000000000000E1020008E5
:10003000E102000800000000E1020008E1020008FF
:10004000E1020008E1020008E1020008E102000804
:10005000E1020008E102000809060008E1020008C8
:10006000E1020008E1020008E1020008E1020008E4
:10007000E1020008E1020008E1020008E1020008D4
:10008000E1020008E1020008E1020008E1020008C4
:10009000E1020008E1020008E1020008E1020008B4
:1000A000E1020008E1020008E1020008E1020008A4
:1000B000E1020008E1020008E1020008E102000894
:1000C000E1020008E1020008E1020008E102000884
:1000D000E1020008E1020008E1020008E102000874
:1000E000E1020008E1020008E1020008000000004F
:1000F0000000000000000000000000000000000000
:1001000000000000000000005FF808F180B500AFBB
:10011000154A154B1B6843F0010313601249124B3B
:100120005A68124B13404B600F4A0F4B1B6823F069
:10013000847323F4803313600B4A0B4B1B6823F446
:1001400080231360084A084B5B6823F4FE03536066
:10015000054B4FF41F029A6000F00CF8044B4FF06F
:1001600000629A6000BF80BD001002400000FFF8EE
:1001700000ED00E080B500AF00F002F800BF80BDE8
:1001800080B483B000AF00237B6000233B603A4A19
:10019000394B1B6843F480331360374B1B6803F4FF
:1001A00000333B607B6801337B603B68002B03D1ED
:1001B0007B68B3F5A06FF0D12F4B1B6803F40033BD
:1001C000002B02D001233B6001E000233B603B6831
:1001D000012B4BD1294A294B1B6843F010031360B4
:1001E000264A264B1B6823F003031360234A234B44
:1001F0001B6843F0020313601F4A1F4B5B68536088
:100200001D4A1D4B5B6853601B4A1B4B5B6843F4E4
:1002100080635360184A184B5B6823F47C13536067
:10022000154A154B5B6843F4E8135360124A124BAE
:100230001B6843F08073136000BF0F4B1B6803F013
:100240000073002BF9D00C4A0B4B5B6823F00303BF
:100250005360094A084B5B6843F00203536000BFD8
:10026000054B5B6803F00C03082BF9D100BF0C377A
:10027000BD4680BC704700BF001002400020024015
:1002800080B582B000AF114B7B60114B3B6007E043
:100290003B681A1D3A607A68111D796012681A600D
:1002A0003B680C4A9342F3D30B480C494FF00002D1
:1002B0008842B8BF40F8042BFADBFFF727FF00F0B5
:1002C000D3F900BF0837BD4680BD00BFE80C000869
:1002D0000000002000000020000000200800002096
:1002E00080B400AFFEE700BF80B489B000AF786093
:1002F00039600023FB6100233B610023BB610023C5
:10030000FB6000237B610023BB603B68DB7803F06C
:100310000F03FB613B68DB7803F01003002B05D073
:100320003B689B781A46FB691343FB613B681B885B
:10033000DBB2002B44D07B681B687B610023BB6170
:1003400038E00122BB6902FA03F3FB603B681B88BB
:100350001A46FB6813403B613A69FB689A4226D112
:10036000BB699B00FB600F22FB6802FA03F3BB60D2
:10037000BB68DB437A6913407B61FA69FB6802FA68
:1003800003F37A6913437B613B68DB78282B05D143
:100390000122BB699A407B685A6108E03B68DB78C0
:1003A000482B04D10122BB699A407B681A61BB6962
:1003B0000133BB61BB69072BC3D97B687A691A60BB
:1003C0003B681B88FF2B46D97B685B687B610023F9
:1003D000BB613AE0BB690833012202FA03F3FB6018
:1003E0003B681B881A46FB6813403B613A69FB680F
:1003F0009A4227D1BB699B00FB600F22FB6802FA7F
:1004000003F3BB60BB68DB437A6913407B61FA6925
:10041000FB6802FA03F37A6913437B613B68DB787C
:10042000282B05D1BB69083301229A407B685A61A9
:100430003B68DB78482B05D1BB69083301229A4021
:100440007B681A61BB690133BB61BB69072BC1D9EA
:100450007B687A695A6000BF2437BD4680BC70470C
:1004600080B483B000AF78607B684FF6FF721A806B
:100470007B6802229A707B680422DA7000BF0C3716
:10048000BD4680BC704700BF80B485B000AF7860C7
:100490000B467B800023FB737B689A687B88134044
:1004A000002B02D00123FB7301E00023FB73FB7BD5
:1004B00018461437BD4680BC704700BF80B483B077
:1004C00000AF78600B467B807A887B681A6100BF3A
:1004D0000C37BD4680BC704780B483B000AF7860F5
:1004E0000B467B807A887B685A6100BF0C37BD461B
:1004F00080BC704790B484B000AF03460A46FB71DD
:100500001346BB710023FB60BB7903F003039B0020
:100510000F2202FA03F3FB601649BB799B08DBB29A
:100520001846144ABB799B08DBB2023352F82320E9
:10053000FB68DB431A40831C41F823200D48BB793C
:100540009B08DBB21C460B4ABB799B08DBB202332B
:1005500052F82320F979BB7903F003039B0001FAD9
:1005600003F31A43A31C40F8232000BF1037BD46F5
:1005700090BC70470000014080B483B000AF786049
:1005800002E07B68013B7B607B68002BF9D100BFF8
:100590000C37BD4680BC704780B582B000AF00F01C
:1005A00015F94FF4803000F03FF900F06BF9034685
:1005B000FB71FB79012B23D1002000F0E3F900202F
:1005C00000F018FA4FF4806000F0F8F94FF4E011F1
:1005D0004FF4803000F07EF9012000F099F900BF5F
:1005E000392000F041FA0346002BF9D0022000F038
:1005F0009FF900BF00F0B8F90346082BFAD100E0DC
:10060000FEE70837BD4680BD80B500AF012000F091
:10061000D7FA0346002B1DD00F48FFF7ADFF01218D
:100620000E48FFF731FF0346012B10D10C4B1B681E
:10063000002B06D10B4B01221A60094B01221A60D4
:1006400005E0084B00221A60054B00221A600120C9
:1006500000F0DAFA00BF80BD20A10700000C0140C5
:10066000040000200000002080B586B000AFFFF736
:1006700093FF0121042000F0D9F91E23BB8210232F
:10068000FB750323BB7507F1140319464B48FFF7AD
:100690002BFE07F110031846FFF7E2FE01210820A8
:1006A00000F0C4F91023FB7401233B8207F110030F
:1006B00019464348FFF718FE0121012000F0B6F962
:1006C0000123BB814823FB730223BB7307F10C0397
:1006D00019463B48FFF708FE06233B7000237B705A
:1006E0000023BB700123FB703B46184600F09AFACA
:1006F00000210120FFF7FEFE01237B600123BB7276
:1007000000233B7210237B723B1D184600F0E6F974
:100710002C4B1B68002B02D0012B29D04DE002216D
:100720002648FFF7CBFE02212448FFF7C7FE04212D
:100730002248FFF7C3FE08212048FFF7BFFE2248EA
:10074000FFF71AFF08211D48FFF7C6FE1E48FFF7F6
:1007500013FF10211948FFF7B1FE1B48FFF70CFFEC
:1007600010211648FFF7B8FE1748FFF705FF24E0F1
:1007700008211248FFF7A2FE10211048FFF79EFE45
:1007800002210E48FFF79AFE0F48FFF7F5FE0221FF
:100790000A48FFF7A1FE0C48FFF7EEFE04210748C8
:1007A000FFF78CFE0848FFF7E7FE04210348FFF738
:1007B00093FE0548FFF7E0FE00BFA9E700080140EF
:1007C000000C01400000002020A1070080B400AF11
:1007D000134A134B1B6843F0010313601049104B7D
:1007E0005A68104B13404B600D4A0D4B1B6823F0A9
:1007F000847323F480331360094A094B1B6823F484
:1008000080231360064A064B5B6823F4FE035360A3
:10081000034B4FF41F029A6000BFBD4680BC704777
:10082000001002400000FFF880B483B000AF786091
:10083000134A134B1B6823F480331360104A104B88
:100840001B6823F4802313607B68B3F5803F03D0DB
:10085000B3F5802F07D00DE0094A094B1B6843F41C
:100860008033136006E0064A054B1B6843F4A0235F
:10087000136000BF00BF0C37BD4680BC704700BF8F
:100880000010024080B582B000AF00233B6000231F
:10089000FB710023BB71312000F0E6F80346BB7109
:1008A0003B6801333B603B68B3F5A06F02D0BB7976
:1008B000002BF0D0312000F0D7F80346002B02D0F7
:1008C0000123FB7101E00023FB71FB791846083717
:1008D000BD4680BD80B485B000AF7860396000232C
:1008E000FB600A4B5B68FB60FB6823F47C13FB60D6
:1008F0007A683B681343FA681343FB60034AFB685A
:10090000536000BF1437BD4680BC704700100240E2
:1009100080B483B000AF0346FB71044AFB791360D7
:1009200000BF0C37BD4680BC704700BF600042422C
:1009300080B485B000AF78600023FB60094B5B6832
:10094000FB60FB6823F00303FB60FA687B681343DA
:10095000FB60044AFB68536000BF1437BD4680BC8F
:10096000704700BF0010024080B400AF044B5B68CA
:10097000DBB203F00C03DBB21846BD4680BC704707
:100980000010024080B485B000AF78600023FB60A7
:10099000094B5B68FB60FB6823F0F003FB60FA68BF
:1009A0007B681343FB60044AFB68536000BF143745
:1009B000BD4680BC704700BF0010024080B485B0C7
:1009C00000AF78600023FB60094B5B68FB60FB684D
:1009D00023F4E063FB60FA687B681343FB60044A1E
:1009E000FB68536000BF1437BD4680BC704700BF32
:1009F0000010024080B485B000AF78600023FB6037
:100A0000094B5B68FB60FB6823F46053FB607B6809
:100A1000DB00FA681343FB60034AFB68536000BFC6
:100A20001437BD4680BC70470010024080B483B0CC
:100A300000AF78600B46FB70FB78002B06D00949AD
:100A4000084B9A697B6813438B6106E00549054BA7
:100A50009A697B68DB4313408B6100BF0C37BD464E
:100A600080BC70470010024080B487B000AF0346DE
:100A7000FB710023FB6000237B610023FB74FB7987
:100A80005B09DBB2FB60FB68012B03D1124B1B68D7
:100A90007B6109E0FB68022B03D10F4B1B6A7B6172
:100AA00002E00D4B5B6A7B61FB7903F01F03FB6087
:100AB0007A69FB6822FA03F303F00103002B02D0EA
:100AC0000123FB7401E00023FB74FB7C18461C37F8
:100AD000BD4680BC704700BF0010024080B485B0A6
:100AE00000AF78600023FB60344BFB607B689B7930
:100AF000002B4FD03149314B1A687B681B68DB43B0
:100B000013400B602D492D4B5A687B681B68DB43F3
:100B100013404B607B681B791A46FB681344FB60EB
:100B2000FB68FA6811687A6812680A431A602349F8
:100B3000224B9A687B681B68DB4313408B601F491C
:100B40001E4BDA687B681B68DB431340CB607B6815
:100B50005B79102B0ED11949184B9A687B681B687A
:100B600013438B601549154BDA687B681B68134388
:100B7000CB601DE0114BFB607B685B791A46FB681C
:100B80001344FB60FB68FA6811687A6812680A43CC
:100B90001A600DE07B681B791A46FB681344FB6002
:100BA000FB68FA6811687A681268D2430A401A60D2
:100BB00000BF1437BD4680BC704700BF0004014031
:100BC00080B485B000AF78600023FB730023BB6066
:100BD0000C4B1A687B681340BB600A4B5A697B68F0
:100BE0001340002B05D0BB68002B02D00123FB7300
:100BF00001E00023FB73FB7B18461437BD4680BC25
:100C0000704700BF0004014080B483B000AF78603B
:100C1000034A7B68536100BF0C37BD4680BC7047F8
:100C20000004014080B487B000AF786000237B618E
:100C300000233B610F23FB607B68DB78002B3AD0FD
:100C4000274BDB68DB4303F4E0631B0A7B617B69B2
:100C5000C3F104033B61FA687B6922FA03F3FB608A
:100C60007B685B781A463B6902FA03F37B617B6819
:100C70009B781A46FB6813407A6913437B617B6952
:100C80001B017B61174A7B681B787969C9B21344E1
:100C90000A4683F80023134A7B681B785B09DBB2A2
:100CA00018467B681B7803F01F03012101FA03F348
:100CB00042F820300FE00B497B681B785B09DBB200
:100CC00018467B681B7803F01F0301229A4000F14D
:100CD000200341F8232000BF1C37BD4680BC70476D
:080CE00000ED00E000E100E07E
:0400000508000000EF
:00000001FF
